{
  "_format": "hh-sol-artifact-1",
  "contractName": "GaslessForwarder",
  "sourceName": "contracts/GaslessForwarder.sol",
  "abi": [
    {
      "inputs": [],
      "stateMutability": "nonpayable",
      "type": "constructor"
    },
    {
      "inputs": [],
      "name": "ECDSAInvalidSignature",
      "type": "error"
    },
    {
      "inputs": [
        {
          "internalType": "uint256",
          "name": "length",
          "type": "uint256"
        }
      ],
      "name": "ECDSAInvalidSignatureLength",
      "type": "error"
    },
    {
      "inputs": [
        {
          "internalType": "bytes32",
          "name": "s",
          "type": "bytes32"
        }
      ],
      "name": "ECDSAInvalidSignatureS",
      "type": "error"
    },
    {
      "inputs": [],
      "name": "InvalidShortString",
      "type": "error"
    },
    {
      "inputs": [
        {
          "internalType": "string",
          "name": "str",
          "type": "string"
        }
      ],
      "name": "StringTooLong",
      "type": "error"
    },
    {
      "anonymous": false,
      "inputs": [],
      "name": "EIP712DomainChanged",
      "type": "event"
    },
    {
      "anonymous": false,
      "inputs": [
        {
          "indexed": true,
          "internalType": "address",
          "name": "from",
          "type": "address"
        },
        {
          "indexed": true,
          "internalType": "address",
          "name": "to",
          "type": "address"
        },
        {
          "indexed": false,
          "internalType": "bytes",
          "name": "data",
          "type": "bytes"
        },
        {
          "indexed": false,
          "internalType": "uint256",
          "name": "nonce",
          "type": "uint256"
        }
      ],
      "name": "Forwarded",
      "type": "event"
    },
    {
      "inputs": [],
      "name": "eip712Domain",
      "outputs": [
        {
          "internalType": "bytes1",
          "name": "fields",
          "type": "bytes1"
        },
        {
          "internalType": "string",
          "name": "name",
          "type": "string"
        },
        {
          "internalType": "string",
          "name": "version",
          "type": "string"
        },
        {
          "internalType": "uint256",
          "name": "chainId",
          "type": "uint256"
        },
        {
          "internalType": "address",
          "name": "verifyingContract",
          "type": "address"
        },
        {
          "internalType": "bytes32",
          "name": "salt",
          "type": "bytes32"
        },
        {
          "internalType": "uint256[]",
          "name": "extensions",
          "type": "uint256[]"
        }
      ],
      "stateMutability": "view",
      "type": "function"
    },
    {
      "inputs": [
        {
          "components": [
            {
              "internalType": "address",
              "name": "from",
              "type": "address"
            },
            {
              "internalType": "address",
              "name": "to",
              "type": "address"
            },
            {
              "internalType": "uint256",
              "name": "value",
              "type": "uint256"
            },
            {
              "internalType": "uint256",
              "name": "gas",
              "type": "uint256"
            },
            {
              "internalType": "uint256",
              "name": "nonce",
              "type": "uint256"
            },
            {
              "internalType": "bytes",
              "name": "data",
              "type": "bytes"
            }
          ],
          "internalType": "struct GaslessForwarder.ForwardRequest",
          "name": "req",
          "type": "tuple"
        },
        {
          "internalType": "bytes",
          "name": "signature",
          "type": "bytes"
        }
      ],
      "name": "execute",
      "outputs": [],
      "stateMutability": "payable",
      "type": "function"
    },
    {
      "inputs": [
        {
          "internalType": "address",
          "name": "from",
          "type": "address"
        }
      ],
      "name": "getNonce",
      "outputs": [
        {
          "internalType": "uint256",
          "name": "",
          "type": "uint256"
        }
      ],
      "stateMutability": "view",
      "type": "function"
    }
  ],
  "bytecode": "0x61016060405234801561001157600080fd5b506040518060400160405280601081526020017f4761736c657373466f72776172646572000000000000000000000000000000008152506040518060400160405280600181526020017f310000000000000000000000000000000000000000000000000000000000000081525061009260008361012d60201b90919060201c565b61012081815250506100ae60018261012d60201b90919060201c565b6101408181525050818051906020012060e08181525050808051906020012061010081815250504660a081815250506100eb61017d60201b60201c565b608081815250503073ffffffffffffffffffffffffffffffffffffffff1660c08173ffffffffffffffffffffffffffffffffffffffff16815250505050610766565b600060208351101561014f57610148836101d860201b60201c565b9050610177565b8261015f8361024060201b60201c565b600001908161016e919061049a565b5060ff60001b90505b92915050565b60007f8b73c3c69bb8fe3d512ecc4cf759cc79239f7b179b0ffacaa9a75d522b39400f60e0516101005146306040516020016101bd9594939291906105d5565b60405160208183030381529060405280519060200120905090565b600080829050601f8151111561022557826040517f305a27a900000000000000000000000000000000000000000000000000000000815260040161021c91906106ad565b60405180910390fd5b805181610231906106ff565b60001c1760001b915050919050565b6000819050919050565b600081519050919050565b7f4e487b7100000000000000000000000000000000000000000000000000000000600052604160045260246000fd5b7f4e487b7100000000000000000000000000000000000000000000000000000000600052602260045260246000fd5b600060028204905060018216806102cb57607f821691505b6020821081036102de576102dd610284565b5b50919050565b60008190508160005260206000209050919050565b60006020601f8301049050919050565b600082821b905092915050565b6000600883026103467fffffffffffffffffffffffffffffffffffffffffffffffffffffffffffffffff82610309565b6103508683610309565b95508019841693508086168417925050509392505050565b6000819050919050565b6000819050919050565b600061039761039261038d84610368565b610372565b610368565b9050919050565b6000819050919050565b6103b18361037c565b6103c56103bd8261039e565b848454610316565b825550505050565b600090565b6103da6103cd565b6103e58184846103a8565b505050565b5b81811015610409576103fe6000826103d2565b6001810190506103eb565b5050565b601f82111561044e5761041f816102e4565b610428846102f9565b81016020851015610437578190505b61044b610443856102f9565b8301826103ea565b50505b505050565b600082821c905092915050565b600061047160001984600802610453565b1980831691505092915050565b600061048a8383610460565b9150826002028217905092915050565b6104a38261024a565b67ffffffffffffffff8111156104bc576104bb610255565b5b6104c682546102b3565b6104d182828561040d565b600060209050601f83116001811461050457600084156104f2578287015190505b6104fc858261047e565b865550610564565b601f198416610512866102e4565b60005b8281101561053a57848901518255600182019150602085019450602081019050610515565b868310156105575784890151610553601f891682610460565b8355505b6001600288020188555050505b505050505050565b6000819050919050565b61057f8161056c565b82525050565b61058e81610368565b82525050565b600073ffffffffffffffffffffffffffffffffffffffff82169050919050565b60006105bf82610594565b9050919050565b6105cf816105b4565b82525050565b600060a0820190506105ea6000830188610576565b6105f76020830187610576565b6106046040830186610576565b6106116060830185610585565b61061e60808301846105c6565b9695505050505050565b600082825260208201905092915050565b60005b8381101561065757808201518184015260208101905061063c565b60008484015250505050565b6000601f19601f8301169050919050565b600061067f8261024a565b6106898185610628565b9350610699818560208601610639565b6106a281610663565b840191505092915050565b600060208201905081810360008301526106c78184610674565b905092915050565b600081519050919050565b6000819050602082019050919050565b60006106f6825161056c565b80915050919050565b600061070a826106cf565b82610714846106da565b905061071f816106ea565b9250602082101561075f5761075a7fffffffffffffffffffffffffffffffffffffffffffffffffffffffffffffffff83602003600802610309565b831692505b5050919050565b60805160a05160c05160e0516101005161012051610140516115b26107c06000396000610601015260006105c601526000610a9b01526000610a7a0152600061072d01526000610783015260006107ac01526115b26000f3fe6080604052600436106100345760003560e01c80632d0335ab1461003957806347153f821461007657806384b0196e14610092575b600080fd5b34801561004557600080fd5b50610060600480360381019061005b9190610c97565b6100c3565b60405161006d9190610cdd565b60405180910390f35b610090600480360381019061008b9190610d81565b61010c565b005b34801561009e57600080fd5b506100a76103bd565b6040516100ba9796959493929190610fae565b60405180910390f35b6000600260008373ffffffffffffffffffffffffffffffffffffffff1673ffffffffffffffffffffffffffffffffffffffff168152602001908152602001600020549050919050565b610117838383610467565b610156576040517f08c379a000000000000000000000000000000000000000000000000000000000815260040161014d9061107e565b60405180910390fd5b6002600084600001602081019061016d9190610c97565b73ffffffffffffffffffffffffffffffffffffffff1673ffffffffffffffffffffffffffffffffffffffff16815260200190815260200160002060008154809291906101b8906110cd565b919050555060008360200160208101906101d29190610c97565b73ffffffffffffffffffffffffffffffffffffffff168460400135856060013590868060a001906102039190611124565b8860000160208101906102169190610c97565b6040516020016102289392919061120e565b6040516020818303038152906040526040516102449190611274565b600060405180830381858888f193505050503d8060008114610282576040519150601f19603f3d011682016040523d82523d6000602084013e610287565b606091505b50509050806102cb576040517f08c379a00000000000000000000000000000000000000000000000000000000081526004016102c2906112d7565b60405180910390fd5b8360200160208101906102de9190610c97565b73ffffffffffffffffffffffffffffffffffffffff168460000160208101906103079190610c97565b73ffffffffffffffffffffffffffffffffffffffff167f499810bca8bd838451d62a66e67f890a493c74cfd82237223655f738eb114bf1868060a0019061034e9190611124565b600260008a60000160208101906103659190610c97565b73ffffffffffffffffffffffffffffffffffffffff1673ffffffffffffffffffffffffffffffffffffffff168152602001908152602001600020546040516103af93929190611335565b60405180910390a350505050565b6000606080600080600060606103d16105bd565b6103d96105f8565b46306000801b600067ffffffffffffffff8111156103fa576103f9611367565b5b6040519080825280602002602001820160405280156104285781602001602082028036833780820191505090505b507f0f00000000000000000000000000000000000000000000000000000000000000959493929190965096509650965096509650965090919293949596565b60008061057084848080601f016020809104026020016040519081016040528093929190818152602001838380828437600081840152601f19601f820116905080830192505050505050506105627fdd8f4b70b0f4393e889bd39128a30628a78b61816a9eb8199759e7a349657e488860000160208101906104e99190610c97565b8960200160208101906104fc9190610c97565b8a604001358b606001358c608001358d8060a0019061051b9190611124565b604051610529929190611396565b604051809103902060405160200161054797969594939291906113af565b60405160208183030381529060405280519060200120610633565b61064d90919063ffffffff16565b90508460000160208101906105859190610c97565b73ffffffffffffffffffffffffffffffffffffffff168173ffffffffffffffffffffffffffffffffffffffff16149150509392505050565b60606105f360007f000000000000000000000000000000000000000000000000000000000000000061067990919063ffffffff16565b905090565b606061062e60017f000000000000000000000000000000000000000000000000000000000000000061067990919063ffffffff16565b905090565b6000610646610640610729565b836107e0565b9050919050565b60008060008061065d8686610821565b92509250925061066d828261087d565b82935050505092915050565b606060ff60001b83146106965761068f836109e1565b9050610723565b8180546106a29061144d565b80601f01602080910402602001604051908101604052809291908181526020018280546106ce9061144d565b801561071b5780601f106106f05761010080835404028352916020019161071b565b820191906000526020600020905b8154815290600101906020018083116106fe57829003601f168201915b505050505090505b92915050565b60007f000000000000000000000000000000000000000000000000000000000000000073ffffffffffffffffffffffffffffffffffffffff163073ffffffffffffffffffffffffffffffffffffffff161480156107a557507f000000000000000000000000000000000000000000000000000000000000000046145b156107d2577f000000000000000000000000000000000000000000000000000000000000000090506107dd565b6107da610a55565b90505b90565b60006040517f190100000000000000000000000000000000000000000000000000000000000081528360028201528260228201526042812091505092915050565b600080600060418451036108665760008060006020870151925060408701519150606087015160001a905061085888828585610aeb565b955095509550505050610876565b60006002855160001b9250925092505b9250925092565b600060038111156108915761089061147e565b5b8260038111156108a4576108a361147e565b5b03156109dd57600160038111156108be576108bd61147e565b5b8260038111156108d1576108d061147e565b5b03610908576040517ff645eedf00000000000000000000000000000000000000000000000000000000815260040160405180910390fd5b6002600381111561091c5761091b61147e565b5b82600381111561092f5761092e61147e565b5b03610974578060001c6040517ffce698f700000000000000000000000000000000000000000000000000000000815260040161096b9190610cdd565b60405180910390fd5b6003808111156109875761098661147e565b5b82600381111561099a5761099961147e565b5b036109dc57806040517fd78bce0c0000000000000000000000000000000000000000000000000000000081526004016109d391906114ad565b60405180910390fd5b5b5050565b606060006109ee83610bdf565b90506000602067ffffffffffffffff811115610a0d57610a0c611367565b5b6040519080825280601f01601f191660200182016040528015610a3f5781602001600182028036833780820191505090505b5090508181528360208201528092505050919050565b60007f8b73c3c69bb8fe3d512ecc4cf759cc79239f7b179b0ffacaa9a75d522b39400f7f00000000000000000000000000000000000000000000000000000000000000007f00000000000000000000000000000000000000000000000000000000000000004630604051602001610ad09594939291906114c8565b60405160208183030381529060405280519060200120905090565b60008060007f7fffffffffffffffffffffffffffffff5d576e7357a4501ddfe92f46681b20a08460001c1115610b2b576000600385925092509250610bd5565b600060018888888860405160008152602001604052604051610b509493929190611537565b6020604051602081039080840390855afa158015610b72573d6000803e3d6000fd5b505050602060405103519050600073ffffffffffffffffffffffffffffffffffffffff168173ffffffffffffffffffffffffffffffffffffffff1603610bc657600060016000801b93509350935050610bd5565b8060008060001b935093509350505b9450945094915050565b60008060ff8360001c169050601f811115610c26576040517fb3512b0c00000000000000000000000000000000000000000000000000000000815260040160405180910390fd5b80915050919050565b600080fd5b600080fd5b600073ffffffffffffffffffffffffffffffffffffffff82169050919050565b6000610c6482610c39565b9050919050565b610c7481610c59565b8114610c7f57600080fd5b50565b600081359050610c9181610c6b565b92915050565b600060208284031215610cad57610cac610c2f565b5b6000610cbb84828501610c82565b91505092915050565b6000819050919050565b610cd781610cc4565b82525050565b6000602082019050610cf26000830184610cce565b92915050565b600080fd5b600060c08284031215610d1357610d12610cf8565b5b81905092915050565b600080fd5b600080fd5b600080fd5b60008083601f840112610d4157610d40610d1c565b5b8235905067ffffffffffffffff811115610d5e57610d5d610d21565b5b602083019150836001820283011115610d7a57610d79610d26565b5b9250929050565b600080600060408486031215610d9a57610d99610c2f565b5b600084013567ffffffffffffffff811115610db857610db7610c34565b5b610dc486828701610cfd565b935050602084013567ffffffffffffffff811115610de557610de4610c34565b5b610df186828701610d2b565b92509250509250925092565b60007fff0000000000000000000000000000000000000000000000000000000000000082169050919050565b610e3281610dfd565b82525050565b600081519050919050565b600082825260208201905092915050565b60005b83811015610e72578082015181840152602081019050610e57565b60008484015250505050565b6000601f19601f8301169050919050565b6000610e9a82610e38565b610ea48185610e43565b9350610eb4818560208601610e54565b610ebd81610e7e565b840191505092915050565b610ed181610c59565b82525050565b6000819050919050565b610eea81610ed7565b82525050565b600081519050919050565b600082825260208201905092915050565b6000819050602082019050919050565b610f2581610cc4565b82525050565b6000610f378383610f1c565b60208301905092915050565b6000602082019050919050565b6000610f5b82610ef0565b610f658185610efb565b9350610f7083610f0c565b8060005b83811015610fa1578151610f888882610f2b565b9750610f9383610f43565b925050600181019050610f74565b5085935050505092915050565b600060e082019050610fc3600083018a610e29565b8181036020830152610fd58189610e8f565b90508181036040830152610fe98188610e8f565b9050610ff86060830187610cce565b6110056080830186610ec8565b61101260a0830185610ee1565b81810360c08301526110248184610f50565b905098975050505050505050565b7f496e76616c6964207369676e6174757265000000000000000000000000000000600082015250565b6000611068601183610e43565b915061107382611032565b602082019050919050565b600060208201905081810360008301526110978161105b565b9050919050565b7f4e487b7100000000000000000000000000000000000000000000000000000000600052601160045260246000fd5b60006110d882610cc4565b91507fffffffffffffffffffffffffffffffffffffffffffffffffffffffffffffffff820361110a5761110961109e565b5b600182019050919050565b600080fd5b600080fd5b600080fd5b6000808335600160200384360303811261114157611140611115565b5b80840192508235915067ffffffffffffffff8211156111635761116261111a565b5b60208301925060018202360383131561117f5761117e61111f565b5b509250929050565b600081905092915050565b82818337600083830152505050565b60006111ad8385611187565b93506111ba838584611192565b82840190509392505050565b60008160601b9050919050565b60006111de826111c6565b9050919050565b60006111f0826111d3565b9050919050565b61120861120382610c59565b6111e5565b82525050565b600061121b8285876111a1565b915061122782846111f7565b601482019150819050949350505050565b600081519050919050565b600061124e82611238565b6112588185611187565b9350611268818560208601610e54565b80840191505092915050565b60006112808284611243565b915081905092915050565b7f5472616e73616374696f6e206661696c65640000000000000000000000000000600082015250565b60006112c1601283610e43565b91506112cc8261128b565b602082019050919050565b600060208201905081810360008301526112f0816112b4565b9050919050565b600082825260208201905092915050565b600061131483856112f7565b9350611321838584611192565b61132a83610e7e565b840190509392505050565b60006040820190508181036000830152611350818587611308565b905061135f6020830184610cce565b949350505050565b7f4e487b7100000000000000000000000000000000000000000000000000000000600052604160045260246000fd5b60006113a38284866111a1565b91508190509392505050565b600060e0820190506113c4600083018a610ee1565b6113d16020830189610ec8565b6113de6040830188610ec8565b6113eb6060830187610cce565b6113f86080830186610cce565b61140560a0830185610cce565b61141260c0830184610ee1565b98975050505050505050565b7f4e487b7100000000000000000000000000000000000000000000000000000000600052602260045260246000fd5b6000600282049050600182168061146557607f821691505b6020821081036114785761147761141e565b5b50919050565b7f4e487b7100000000000000000000000000000000000000000000000000000000600052602160045260246000fd5b60006020820190506114c26000830184610ee1565b92915050565b600060a0820190506114dd6000830188610ee1565b6114ea6020830187610ee1565b6114f76040830186610ee1565b6115046060830185610cce565b6115116080830184610ec8565b9695505050505050565b600060ff82169050919050565b6115318161151b565b82525050565b600060808201905061154c6000830187610ee1565b6115596020830186611528565b6115666040830185610ee1565b6115736060830184610ee1565b9594505050505056fea2646970667358221220bf5c7c8c4a2cc2b61f9296316af76e4294247d0298d3dd488e7ca6456d2b5dc864736f6c634300081c0033",
  "linkReferences": {},
  "deployedLinkReferences": {}
}