{
  "_format": "hh-sol-artifact-1",
  "contractName": "GaslessForwarder",
  "sourceName": "contracts/GaslessForwarder.sol",
  "abi": [
    {
      "inputs": [],
      "stateMutability": "nonpayable",
      "type": "constructor"
    },
    {
      "inputs": [],
      "name": "ECDSAInvalidSignature",
      "type": "error"
    },
    {
      "inputs": [
        {
          "internalType": "uint256",
          "name": "length",
          "type": "uint256"
        }
      ],
      "name": "ECDSAInvalidSignatureLength",
      "type": "error"
    },
    {
      "inputs": [
        {
          "internalType": "bytes32",
          "name": "s",
          "type": "bytes32"
        }
      ],
      "name": "ECDSAInvalidSignatureS",
      "type": "error"
    },
    {
      "inputs": [],
      "name": "InvalidShortString",
      "type": "error"
    },
    {
      "inputs": [
        {
          "internalType": "string",
          "name": "str",
          "type": "string"
        }
      ],
      "name": "StringTooLong",
      "type": "error"
    },
    {
      "anonymous": false,
      "inputs": [],
      "name": "EIP712DomainChanged",
      "type": "event"
    },
    {
      "anonymous": false,
      "inputs": [
        {
          "indexed": true,
          "internalType": "address",
          "name": "token",
          "type": "address"
        },
        {
          "indexed": true,
          "internalType": "address",
          "name": "from",
          "type": "address"
        },
        {
          "indexed": true,
          "internalType": "address",
          "name": "to",
          "type": "address"
        },
        {
          "indexed": false,
          "internalType": "uint256",
          "name": "amount",
          "type": "uint256"
        }
      ],
      "name": "ERC20Transferred",
      "type": "event"
    },
    {
      "anonymous": false,
      "inputs": [
        {
          "indexed": true,
          "internalType": "address",
          "name": "token",
          "type": "address"
        },
        {
          "indexed": true,
          "internalType": "address",
          "name": "from",
          "type": "address"
        },
        {
          "indexed": true,
          "internalType": "address",
          "name": "to",
          "type": "address"
        },
        {
          "indexed": false,
          "internalType": "uint256",
          "name": "tokenId",
          "type": "uint256"
        }
      ],
      "name": "ERC721Transferred",
      "type": "event"
    },
    {
      "anonymous": false,
      "inputs": [
        {
          "indexed": true,
          "internalType": "address",
          "name": "from",
          "type": "address"
        },
        {
          "indexed": true,
          "internalType": "address",
          "name": "to",
          "type": "address"
        },
        {
          "indexed": false,
          "internalType": "bytes",
          "name": "data",
          "type": "bytes"
        },
        {
          "indexed": false,
          "internalType": "uint256",
          "name": "nonce",
          "type": "uint256"
        }
      ],
      "name": "Forwarded",
      "type": "event"
    },
    {
      "inputs": [],
      "name": "eip712Domain",
      "outputs": [
        {
          "internalType": "bytes1",
          "name": "fields",
          "type": "bytes1"
        },
        {
          "internalType": "string",
          "name": "name",
          "type": "string"
        },
        {
          "internalType": "string",
          "name": "version",
          "type": "string"
        },
        {
          "internalType": "uint256",
          "name": "chainId",
          "type": "uint256"
        },
        {
          "internalType": "address",
          "name": "verifyingContract",
          "type": "address"
        },
        {
          "internalType": "bytes32",
          "name": "salt",
          "type": "bytes32"
        },
        {
          "internalType": "uint256[]",
          "name": "extensions",
          "type": "uint256[]"
        }
      ],
      "stateMutability": "view",
      "type": "function"
    },
    {
      "inputs": [
        {
          "components": [
            {
              "internalType": "address",
              "name": "from",
              "type": "address"
            },
            {
              "internalType": "address",
              "name": "to",
              "type": "address"
            },
            {
              "internalType": "uint256",
              "name": "value",
              "type": "uint256"
            },
            {
              "internalType": "uint256",
              "name": "gas",
              "type": "uint256"
            },
            {
              "internalType": "uint256",
              "name": "nonce",
              "type": "uint256"
            },
            {
              "internalType": "bytes",
              "name": "data",
              "type": "bytes"
            }
          ],
          "internalType": "struct GaslessForwarder.ForwardRequest",
          "name": "req",
          "type": "tuple"
        },
        {
          "internalType": "bytes",
          "name": "signature",
          "type": "bytes"
        }
      ],
      "name": "execute",
      "outputs": [],
      "stateMutability": "payable",
      "type": "function"
    },
    {
      "inputs": [
        {
          "internalType": "address",
          "name": "from",
          "type": "address"
        }
      ],
      "name": "getNonce",
      "outputs": [
        {
          "internalType": "uint256",
          "name": "",
          "type": "uint256"
        }
      ],
      "stateMutability": "view",
      "type": "function"
    }
  ],
  "bytecode": "0x61016060405234801561001157600080fd5b506040518060400160405280601081526020017f4761736c657373466f72776172646572000000000000000000000000000000008152506040518060400160405280600181526020017f310000000000000000000000000000000000000000000000000000000000000081525061009260008361012d60201b90919060201c565b61012081815250506100ae60018261012d60201b90919060201c565b6101408181525050818051906020012060e08181525050808051906020012061010081815250504660a081815250506100eb61017d60201b60201c565b608081815250503073ffffffffffffffffffffffffffffffffffffffff1660c08173ffffffffffffffffffffffffffffffffffffffff16815250505050610766565b600060208351101561014f57610148836101d860201b60201c565b9050610177565b8261015f8361024060201b60201c565b600001908161016e919061049a565b5060ff60001b90505b92915050565b60007f8b73c3c69bb8fe3d512ecc4cf759cc79239f7b179b0ffacaa9a75d522b39400f60e0516101005146306040516020016101bd9594939291906105d5565b60405160208183030381529060405280519060200120905090565b600080829050601f8151111561022557826040517f305a27a900000000000000000000000000000000000000000000000000000000815260040161021c91906106ad565b60405180910390fd5b805181610231906106ff565b60001c1760001b915050919050565b6000819050919050565b600081519050919050565b7f4e487b7100000000000000000000000000000000000000000000000000000000600052604160045260246000fd5b7f4e487b7100000000000000000000000000000000000000000000000000000000600052602260045260246000fd5b600060028204905060018216806102cb57607f821691505b6020821081036102de576102dd610284565b5b50919050565b60008190508160005260206000209050919050565b60006020601f8301049050919050565b600082821b905092915050565b6000600883026103467fffffffffffffffffffffffffffffffffffffffffffffffffffffffffffffffff82610309565b6103508683610309565b95508019841693508086168417925050509392505050565b6000819050919050565b6000819050919050565b600061039761039261038d84610368565b610372565b610368565b9050919050565b6000819050919050565b6103b18361037c565b6103c56103bd8261039e565b848454610316565b825550505050565b600090565b6103da6103cd565b6103e58184846103a8565b505050565b5b81811015610409576103fe6000826103d2565b6001810190506103eb565b5050565b601f82111561044e5761041f816102e4565b610428846102f9565b81016020851015610437578190505b61044b610443856102f9565b8301826103ea565b50505b505050565b600082821c905092915050565b600061047160001984600802610453565b1980831691505092915050565b600061048a8383610460565b9150826002028217905092915050565b6104a38261024a565b67ffffffffffffffff8111156104bc576104bb610255565b5b6104c682546102b3565b6104d182828561040d565b600060209050601f83116001811461050457600084156104f2578287015190505b6104fc858261047e565b865550610564565b601f198416610512866102e4565b60005b8281101561053a57848901518255600182019150602085019450602081019050610515565b868310156105575784890151610553601f891682610460565b8355505b6001600288020188555050505b505050505050565b6000819050919050565b61057f8161056c565b82525050565b61058e81610368565b82525050565b600073ffffffffffffffffffffffffffffffffffffffff82169050919050565b60006105bf82610594565b9050919050565b6105cf816105b4565b82525050565b600060a0820190506105ea6000830188610576565b6105f76020830187610576565b6106046040830186610576565b6106116060830185610585565b61061e60808301846105c6565b9695505050505050565b600082825260208201905092915050565b60005b8381101561065757808201518184015260208101905061063c565b60008484015250505050565b6000601f19601f8301169050919050565b600061067f8261024a565b6106898185610628565b9350610699818560208601610639565b6106a281610663565b840191505092915050565b600060208201905081810360008301526106c78184610674565b905092915050565b600081519050919050565b6000819050602082019050919050565b60006106f6825161056c565b80915050919050565b600061070a826106cf565b82610714846106da565b905061071f816106ea565b9250602082101561075f5761075a7fffffffffffffffffffffffffffffffffffffffffffffffffffffffffffffffff83602003600802610309565b831692505b5050919050565b60805160a05160c05160e051610100516101205161014051611c306107c06000396000610a9601526000610a5b01526000610f3001526000610f0f01526000610bc201526000610c1801526000610c410152611c306000f3fe6080604052600436106100345760003560e01c80632d0335ab1461003957806347153f821461007657806384b0196e14610092575b600080fd5b34801561004557600080fd5b50610060600480360381019061005b919061112c565b6100c3565b60405161006d9190611172565b60405180910390f35b610090600480360381019061008b9190611216565b61010c565b005b34801561009e57600080fd5b506100a761068c565b6040516100ba9796959493929190611443565b60405180910390f35b6000600260008373ffffffffffffffffffffffffffffffffffffffff1673ffffffffffffffffffffffffffffffffffffffff168152602001908152602001600020549050919050565b610117838383610736565b610156576040517f08c379a000000000000000000000000000000000000000000000000000000000815260040161014d90611513565b60405180910390fd5b6002600084600001602081019061016d919061112c565b73ffffffffffffffffffffffffffffffffffffffff1673ffffffffffffffffffffffffffffffffffffffff16815260200190815260200160002060008154809291906101b890611562565b919050555060008360200160208101906101d2919061112c565b73ffffffffffffffffffffffffffffffffffffffff168460400135856060013590868060a0019061020391906115b9565b886000016020810190610216919061112c565b604051602001610228939291906116a3565b6040516020818303038152906040526040516102449190611709565b600060405180830381858888f193505050503d8060008114610282576040519150601f19603f3d011682016040523d82523d6000602084013e610287565b606091505b50509050806102cb576040517f08c379a00000000000000000000000000000000000000000000000000000000081526004016102c29061176c565b60405180910390fd5b8360200160208101906102de919061112c565b73ffffffffffffffffffffffffffffffffffffffff16846000016020810190610307919061112c565b73ffffffffffffffffffffffffffffffffffffffff167f499810bca8bd838451d62a66e67f890a493c74cfd82237223655f738eb114bf1868060a0019061034e91906115b9565b600260008a6000016020810190610365919061112c565b73ffffffffffffffffffffffffffffffffffffffff1673ffffffffffffffffffffffffffffffffffffffff168152602001908152602001600020546040516103af939291906117ca565b60405180910390a3610412848060a001906103ca91906115b9565b8080601f016020809104026020016040519081016040528093929190818152602001838380828437600081840152601f19601f8201169050808301925050505050505061088c565b1561052057600080610475868060a0019061042d91906115b9565b8080601f016020809104026020016040519081016040528093929190818152602001838380828437600081840152601f19601f82011690508083019250505050505050610904565b915091508173ffffffffffffffffffffffffffffffffffffffff168660000160208101906104a3919061112c565b73ffffffffffffffffffffffffffffffffffffffff168760200160208101906104cc919061112c565b73ffffffffffffffffffffffffffffffffffffffff167f8dfac83616afc4a99a89fe63243ae807798d10eb5a1449e5472853efc3c022cf846040516105119190611172565b60405180910390a45050610686565b61057b848060a0019061053391906115b9565b8080601f016020809104026020016040519081016040528093929190818152602001838380828437600081840152601f19601f8201169050808301925050505050505061096a565b15610685576000806105de868060a0019061059691906115b9565b8080601f016020809104026020016040519081016040528093929190818152602001838380828437600081840152601f19601f820116905080830192505050505050506109e2565b915091508173ffffffffffffffffffffffffffffffffffffffff1686600001602081019061060c919061112c565b73ffffffffffffffffffffffffffffffffffffffff16876020016020810190610635919061112c565b73ffffffffffffffffffffffffffffffffffffffff167f0d51cb9153ff678c00c10a9a9365be8d1dce6eb4d8a0181a613da760afda4e288460405161067a9190611172565b60405180910390a450505b5b50505050565b6000606080600080600060606106a0610a52565b6106a8610a8d565b46306000801b600067ffffffffffffffff8111156106c9576106c86117fc565b5b6040519080825280602002602001820160405280156106f75781602001602082028036833780820191505090505b507f0f00000000000000000000000000000000000000000000000000000000000000959493929190965096509650965096509650965090919293949596565b60008061083f84848080601f016020809104026020016040519081016040528093929190818152602001838380828437600081840152601f19601f820116905080830192505050505050506108317fdd8f4b70b0f4393e889bd39128a30628a78b61816a9eb8199759e7a349657e488860000160208101906107b8919061112c565b8960200160208101906107cb919061112c565b8a604001358b606001358c608001358d8060a001906107ea91906115b9565b6040516107f892919061182b565b60405180910390206040516020016108169796959493929190611844565b60405160208183030381529060405280519060200120610ac8565b610ae290919063ffffffff16565b9050846000016020810190610854919061112c565b73ffffffffffffffffffffffffffffffffffffffff168173ffffffffffffffffffffffffffffffffffffffff16149150509392505050565b6000808261089990611911565b90507fa9059cbb2ab09eb219583f4a59a5d0623ade346d962bcd4e46b11da047c9049b7bffffffffffffffffffffffffffffffffffffffffffffffffffffffff1916817bffffffffffffffffffffffffffffffffffffffffffffffffffffffff191614915050919050565b60008060448351101561094c576040517f08c379a0000000000000000000000000000000000000000000000000000000008152600401610943906119ea565b60405180910390fd5b60008060248501519150604485015190508181935093505050915091565b6000808261097790611911565b90507f42842e0eb38857a7775b4e7364b2775df7325074d088e7fb39590cd6281184ed7bffffffffffffffffffffffffffffffffffffffffffffffffffffffff1916817bffffffffffffffffffffffffffffffffffffffffffffffffffffffff191614915050919050565b600080606483511015610a2a576040517f08c379a0000000000000000000000000000000000000000000000000000000008152600401610a2190611a7c565b60405180910390fd5b6000806000602486015192506044860151915060648601519050818194509450505050915091565b6060610a8860007f0000000000000000000000000000000000000000000000000000000000000000610b0e90919063ffffffff16565b905090565b6060610ac360017f0000000000000000000000000000000000000000000000000000000000000000610b0e90919063ffffffff16565b905090565b6000610adb610ad5610bbe565b83610c75565b9050919050565b600080600080610af28686610cb6565b925092509250610b028282610d12565b82935050505092915050565b606060ff60001b8314610b2b57610b2483610e76565b9050610bb8565b818054610b3790611acb565b80601f0160208091040260200160405190810160405280929190818152602001828054610b6390611acb565b8015610bb05780601f10610b8557610100808354040283529160200191610bb0565b820191906000526020600020905b815481529060010190602001808311610b9357829003601f168201915b505050505090505b92915050565b60007f000000000000000000000000000000000000000000000000000000000000000073ffffffffffffffffffffffffffffffffffffffff163073ffffffffffffffffffffffffffffffffffffffff16148015610c3a57507f000000000000000000000000000000000000000000000000000000000000000046145b15610c67577f00000000000000000000000000000000000000000000000000000000000000009050610c72565b610c6f610eea565b90505b90565b60006040517f190100000000000000000000000000000000000000000000000000000000000081528360028201528260228201526042812091505092915050565b60008060006041845103610cfb5760008060006020870151925060408701519150606087015160001a9050610ced88828585610f80565b955095509550505050610d0b565b60006002855160001b9250925092505b9250925092565b60006003811115610d2657610d25611afc565b5b826003811115610d3957610d38611afc565b5b0315610e725760016003811115610d5357610d52611afc565b5b826003811115610d6657610d65611afc565b5b03610d9d576040517ff645eedf00000000000000000000000000000000000000000000000000000000815260040160405180910390fd5b60026003811115610db157610db0611afc565b5b826003811115610dc457610dc3611afc565b5b03610e09578060001c6040517ffce698f7000000000000000000000000000000000000000000000000000000008152600401610e009190611172565b60405180910390fd5b600380811115610e1c57610e1b611afc565b5b826003811115610e2f57610e2e611afc565b5b03610e7157806040517fd78bce0c000000000000000000000000000000000000000000000000000000008152600401610e689190611b2b565b60405180910390fd5b5b5050565b60606000610e8383611074565b90506000602067ffffffffffffffff811115610ea257610ea16117fc565b5b6040519080825280601f01601f191660200182016040528015610ed45781602001600182028036833780820191505090505b5090508181528360208201528092505050919050565b60007f8b73c3c69bb8fe3d512ecc4cf759cc79239f7b179b0ffacaa9a75d522b39400f7f00000000000000000000000000000000000000000000000000000000000000007f00000000000000000000000000000000000000000000000000000000000000004630604051602001610f65959493929190611b46565b60405160208183030381529060405280519060200120905090565b60008060007f7fffffffffffffffffffffffffffffff5d576e7357a4501ddfe92f46681b20a08460001c1115610fc057600060038592509250925061106a565b600060018888888860405160008152602001604052604051610fe59493929190611bb5565b6020604051602081039080840390855afa158015611007573d6000803e3d6000fd5b505050602060405103519050600073ffffffffffffffffffffffffffffffffffffffff168173ffffffffffffffffffffffffffffffffffffffff160361105b57600060016000801b9350935093505061106a565b8060008060001b935093509350505b9450945094915050565b60008060ff8360001c169050601f8111156110bb576040517fb3512b0c00000000000000000000000000000000000000000000000000000000815260040160405180910390fd5b80915050919050565b600080fd5b600080fd5b600073ffffffffffffffffffffffffffffffffffffffff82169050919050565b60006110f9826110ce565b9050919050565b611109816110ee565b811461111457600080fd5b50565b60008135905061112681611100565b92915050565b600060208284031215611142576111416110c4565b5b600061115084828501611117565b91505092915050565b6000819050919050565b61116c81611159565b82525050565b60006020820190506111876000830184611163565b92915050565b600080fd5b600060c082840312156111a8576111a761118d565b5b81905092915050565b600080fd5b600080fd5b600080fd5b60008083601f8401126111d6576111d56111b1565b5b8235905067ffffffffffffffff8111156111f3576111f26111b6565b5b60208301915083600182028301111561120f5761120e6111bb565b5b9250929050565b60008060006040848603121561122f5761122e6110c4565b5b600084013567ffffffffffffffff81111561124d5761124c6110c9565b5b61125986828701611192565b935050602084013567ffffffffffffffff81111561127a576112796110c9565b5b611286868287016111c0565b92509250509250925092565b60007fff0000000000000000000000000000000000000000000000000000000000000082169050919050565b6112c781611292565b82525050565b600081519050919050565b600082825260208201905092915050565b60005b838110156113075780820151818401526020810190506112ec565b60008484015250505050565b6000601f19601f8301169050919050565b600061132f826112cd565b61133981856112d8565b93506113498185602086016112e9565b61135281611313565b840191505092915050565b611366816110ee565b82525050565b6000819050919050565b61137f8161136c565b82525050565b600081519050919050565b600082825260208201905092915050565b6000819050602082019050919050565b6113ba81611159565b82525050565b60006113cc83836113b1565b60208301905092915050565b6000602082019050919050565b60006113f082611385565b6113fa8185611390565b9350611405836113a1565b8060005b8381101561143657815161141d88826113c0565b9750611428836113d8565b925050600181019050611409565b5085935050505092915050565b600060e082019050611458600083018a6112be565b818103602083015261146a8189611324565b9050818103604083015261147e8188611324565b905061148d6060830187611163565b61149a608083018661135d565b6114a760a0830185611376565b81810360c08301526114b981846113e5565b905098975050505050505050565b7f496e76616c6964207369676e6174757265000000000000000000000000000000600082015250565b60006114fd6011836112d8565b9150611508826114c7565b602082019050919050565b6000602082019050818103600083015261152c816114f0565b9050919050565b7f4e487b7100000000000000000000000000000000000000000000000000000000600052601160045260246000fd5b600061156d82611159565b91507fffffffffffffffffffffffffffffffffffffffffffffffffffffffffffffffff820361159f5761159e611533565b5b600182019050919050565b600080fd5b600080fd5b600080fd5b600080833560016020038436030381126115d6576115d56115aa565b5b80840192508235915067ffffffffffffffff8211156115f8576115f76115af565b5b602083019250600182023603831315611614576116136115b4565b5b509250929050565b600081905092915050565b82818337600083830152505050565b6000611642838561161c565b935061164f838584611627565b82840190509392505050565b60008160601b9050919050565b60006116738261165b565b9050919050565b600061168582611668565b9050919050565b61169d611698826110ee565b61167a565b82525050565b60006116b0828587611636565b91506116bc828461168c565b601482019150819050949350505050565b600081519050919050565b60006116e3826116cd565b6116ed818561161c565b93506116fd8185602086016112e9565b80840191505092915050565b600061171582846116d8565b915081905092915050565b7f5472616e73616374696f6e206661696c65640000000000000000000000000000600082015250565b60006117566012836112d8565b915061176182611720565b602082019050919050565b6000602082019050818103600083015261178581611749565b9050919050565b600082825260208201905092915050565b60006117a9838561178c565b93506117b6838584611627565b6117bf83611313565b840190509392505050565b600060408201905081810360008301526117e581858761179d565b90506117f46020830184611163565b949350505050565b7f4e487b7100000000000000000000000000000000000000000000000000000000600052604160045260246000fd5b6000611838828486611636565b91508190509392505050565b600060e082019050611859600083018a611376565b611866602083018961135d565b611873604083018861135d565b6118806060830187611163565b61188d6080830186611163565b61189a60a0830185611163565b6118a760c0830184611376565b98975050505050505050565b6000819050602082019050919050565b60007fffffffff0000000000000000000000000000000000000000000000000000000082169050919050565b60006118fb82516118c3565b80915050919050565b600082821b905092915050565b600061191c826116cd565b82611926846118b3565b9050611931816118ef565b925060048210156119715761196c7fffffffff0000000000000000000000000000000000000000000000000000000083600403600802611904565b831692505b5050919050565b7f496e76616c69642064617461206c656e67746820666f72204552432d3230207460008201527f72616e7366657200000000000000000000000000000000000000000000000000602082015250565b60006119d46027836112d8565b91506119df82611978565b604082019050919050565b60006020820190508181036000830152611a03816119c7565b9050919050565b7f496e76616c69642064617461206c656e67746820666f72204552432d3732312060008201527f7472616e73666572000000000000000000000000000000000000000000000000602082015250565b6000611a666028836112d8565b9150611a7182611a0a565b604082019050919050565b60006020820190508181036000830152611a9581611a59565b9050919050565b7f4e487b7100000000000000000000000000000000000000000000000000000000600052602260045260246000fd5b60006002820490506001821680611ae357607f821691505b602082108103611af657611af5611a9c565b5b50919050565b7f4e487b7100000000000000000000000000000000000000000000000000000000600052602160045260246000fd5b6000602082019050611b406000830184611376565b92915050565b600060a082019050611b5b6000830188611376565b611b686020830187611376565b611b756040830186611376565b611b826060830185611163565b611b8f608083018461135d565b9695505050505050565b600060ff82169050919050565b611baf81611b99565b82525050565b6000608082019050611bca6000830187611376565b611bd76020830186611ba6565b611be46040830185611376565b611bf16060830184611376565b9594505050505056fea26469706673582212200ca5a1ec89e85395c2d7ec23922f81023a4be5e64a620211f900dfa9811db1ad64736f6c634300081c0033",
  "linkReferences": {},
  "deployedLinkReferences": {}
}